:040000006F00A07A73
:100004000000000000000000C8020000CA02000056
:1000140000000000A807000000000000000000002D
:10002400A8070000A807000000000000000000006E
:10003400A807000000000000A8070000000000005E
:10004400A8070000A8070000A8070000A8070000F0
:10005400A8070000A8070000A8070000A8070000E0
:10006400A8070000A8070000A8070000A8070000D0
:10007400A8070000A8070000A8070000A8070000C0
:10008400A8070000A8070000A8070000A8070000B0
:10009400A8070000A8070000A8070000A8070000A0
:1000A400A8070000A8070000A8070000A807000090
:1000B400A8070000A8070000A8070000A807000080
:1000C400A8070000A8070000A8070000A807000070
:1000D400A8070000A8070000A8070000A807000060
:1000E400A8070000A8070000A8070000A807000050
:1000F400A8070000A8070000A8070000A807000040
:1001040000000000A8070000A8070000A8070000DE
:10011400A8070000A8070000A8070000A80700001F
:10012400A8070000A8070000A8070000A80700000F
:10013400A8070000A8070000A8070000A8070000FF
:10014400A8070000A8070000A8070000A8070000EF
:10015400A8070000A8070000A8070000A8070000DF
:10016400A8070000A8070000A8070000A8070000CF
:10017400A8070000A8070000A8070000A8070000BF
:10018400A8070000A8070000A8070000A8070000AF
:10019400A8070000A8070000A8070000A80700009F
:1001A400000000000000000000000000000000004B
:0C01B4000000000000000000000000003F
:1001C000397101436EC619A0397141536AC866CAB4
:1001D00062CC5ECE19A0397101535AD056D252D496
:1001E0004ED64AD826DA22DC06DE3301614082820E
:1001F00041114AC026C222C406C68282B24D4101C4
:10020000024D924C224CB24B4101024B924A224A7F
:10021000B2494101024992442244B24041018280E4
:100220003D432A876373C3029377F700BDEFADE5C3
:10023000937606FF3D8ABA960CC34CC30CC74CC7D5
:100240004107E36BD7FE11E28280B306C3408A0602
:100250009702000096966780A6002307B700A306C2
:10026000B7002306B700A305B7002305B700A30412
:10027000B7002304B700A303B7002303B700A3020A
:10028000B7002302B700A301B7002301B700A30002
:10029000B7002300B700828093F5F50F9396850091
:1002A000D58D93960501D58D61B79396270097025A
:1002B000000096968682E78086FA9680C1171D8F89
:1002C0003E96E374C3F8A5B701A001A0EFF25FF278
:1002D000411185451145B714014002C202C402C64E
:1002E000EF00F047E17741440D494C00138504804D
:1002F0002312F10022C64AC4EF00101F8545214594
:10030000EF00F0454C00138504C02312810022C683
:100310004AC4EF00701D4101F5BDEFF27FED797128
:100320001306000281450808E53D8545114502C2D6
:1003300002C402C6EF00B042854513050020EF005D
:1003400010423165EF0050273715014089474C00B6
:1003500013050580372401402312F10002C6EF0087
:10036000B01813050440F921854737070E000C0823
:10037000130504403ECC3ACE2302F10202C802CA61
:1003800002D0C529854513050440B92385451305C9
:1003900004401D2B8145130504409125130504409D
:1003A000A923930404402685B12375FD1305044059
:1003B00037240140A123930404402685A92375FD19
:1003C000130504400D2D239CA1804561A1B5EFF2DA
:1003D0003FE239712A842E89B28481451306C00216
:1003E000480836C6353D85450545EF007035228500
:1003F000EF000074930700083ED493070010B24644
:100400003ED6930700403ED8930700023EDA4C08E0
:100410008D6722854ACA26CC36D03EDC02CE02D277
:1004200002DEEF00B0072161F5B3039781818147B8
:100430002A97634F070009CD05669306F6FFB68736
:100440006358C700AA876305D50093170701C183C6
:100450003E858280EFF25FD70945EF009015312C81
:10046000EF00103F716513050520EF007044B707DA
:10047000002083A507083725000013054538EF0045
:10048000504E5525AA853725000013054539EF0044
:10049000504D2D3D59358395818137250000130539
:1004A000453AEF00104C37240140B7040240138650
:1004B0004183930600049305C44413858400013FDF
:1004C000854513858400EF00F0009D46054685456F
:1004D0001305044089298545130504400D29372556
:1004E00000001305C53BB7190140EF003059B72B89
:1004F000000013894183372C0000938A0980938779
:10050000C1818C4313850B3D814C85058CC31384BD
:100510000182EF001045130DF00323800182834414
:10052000040063719D0493D56C0013058C3EEF00AD
:10053000504383470400B1C3814701465685A165F6
:100540002300F400EF00500603460400138509C0A1
:10055000C14513361600EF00300513054006EF00C5
:10056000D03171BF93971400CA9703950700850493
:100570006D3DAA9C230094005DB7854705467DBF6D
:10058000B71702409843B706FFF0411113671700F1
:1005900098C3D84337060200758FD8C39843B7066F
:1005A000F7FEFD16758F98C39843B706FCFFFD163E
:1005B000758F98C3D843B70601FFFD16758FD8C352
:1005C0009843B70600ECFD16758F98C33707FF00F8
:1005D00098C723A6070202C402C69843C166558F76
:1005E00098C3B716024005679C42F18F3EC6A247EA
:1005F00085073EC4B24781E7A247E397E7FEB717F6
:1006000002409C431397E7006357070685473EC6A1
:1006100032478547631FF704B7170240D843B70630
:10062000C1FFFD16D8C3D843D8C3D84313670740CA
:10063000D8C3D843758FD8C3D843B7062900558F80
:10064000D8C39843B7060001558F98C398439316B3
:100650006700E3DD06FED843B7160240719BD8C39E
:10066000D84313672700D8C32147DC42B18BE39EF0
:10067000E7FE4101828002C661BFB7160240D84240
:10068000B70700201146318B938707086305C70021
:1006900021466308C70237177A001307072098C35B
:1006A00037170240584311839376F700370700202D
:1006B000130707003697142398433357D70098C37E
:1006C0008280D842D442416649833D8BF18E130625
:1006D000270015CF3D47630FE6024147630FE6024F
:1006E000454781456313E6004146A1E23747024092
:1006F00003270780418B0DC737177A0013070720A0
:100700003306C70290C3C9DD9843058349BF8145BD
:100710004946E1BF85453546C9BF81453D46F1B7EC
:1007200037173D0013070790E1BF371502405855B2
:100730009316F700585563DF060411833D8B93062B
:10074000170037177A00130707203357D70298C3CB
:100750005455A182BD8A8DE295463307D7020583A1
:1007600098C337170240585794433D8B050733D73A
:10077000E60298C3984369B705456394A600E54629
:10078000E9BF3D456396A600D1463387E602C9BF5F
:100790008906E5BF3D8B9306170037177A001307CC
:1007A00007203357D702F1B701A0970100209381AA
:1007B000610D178100201301E18417250000130546
:1007C00025CE970500209385E5831386818163FA02
:1007D000C5008322050023A0550011059105E3EA19
:1007E000C5FE138581819385818B6377B5002320B6
:1007F00005001105E36DB5FEFD42739002BCAD42EC
:1008000073904280B7620000938282087390023036
:1008100097F2FFFF9382427F93E23200739052304F
:10082000EFF01FD697020000938202C37390123438
:1008300073002030EFF2DF9BB7270140938707401A
:10084000631BF5008545130500200D2F8145130519
:1008500000202D27C1B2B737014093870780E31BE3
:10086000F5FE854513050040112F81451305004015
:10087000CDB75C413707F1E01307F7EF944D7D8F5B
:100880009C41D58FD44DD58FD441A206D58FD98F19
:100890005CC11C4537F7F1FF1307D77FD4457D8F27
:1008A0009C49D58F94458606D58FD98F1CC55C553C
:1008B000370710FF7D177D8FDC29FD1793F7F70FA2
:1008C000D207D98F5CD582801C4589C593E7170074
:1008D0001CC58280F99BEDBF1C4589C593E70710B5
:1008E0001CC5828093F7F7EFE5BF1C4593E78700AF
:1008F0001CC5828008450D81058982801C4593E7CF
:1009000047001CC5828008450981058982801C45F5
:1009100091C537075000D98F1CC582803707B0FFBB
:100920007D17F98FD5BFA54763F7B7048D471387A8
:1009300065FF3307F7020328C5009D47B397E7001B
:1009400093C7F7FFB3F70701B396E600DD8E54C5F2
:10095000994763E3C70495477D163306F602585955
:10096000FD47B397C70093C7F7FFF98F3396C500CC
:100970005D8E50D982800D473387E502032805013B
:100980009D47B397E70093C7F7FFB3F70701B39607
:10099000E600DD8E14C96DBFB14763E2C70295471B
:1009A00065163306F6021859FD47B397C70093C77B
:1009B000F7FFF98F3396C5005D8E10D98280954779
:1009C0004D163306F6025855FD47B397C70093C737
:1009D000F7FFF98FB395C500DD8D4CD582805C4162
:1009E00091C537070004D98F5CC18280370700FCAE
:1009F0007D17F98FD5BFEFF2AFFF01112A842304D1
:100A00000100A5441C8463F9F40423040100A546F5
:100A100021461C8463FDF606231501002304010012
:100A200095461C8463FFF60C38853C8599460D4637
:100A3000B3F7D702056513050580B3D7C70233574F
:100A4000D702BA97C207C1837C853C8505611D8D9D
:100A5000420541856FF00FFC1C4493E787001CC4DE
:100A60002285493D75FD1C4493E747001CC422853F
:100A7000593D75FD78441C8414108607B69723965B
:100A8000E7FE1C84850793F7F70F5C84A5BFA304DA
:100A900001009C846378F6001C84850793F7F70FA8
:100AA0005C8485BF98849C840C10060785078607A4
:100AB0002E97AE970357C7FE83D7C7FE63FDE702A5
:100AC0009C848607AE9783D7C7FE7C859C849884D8
:100AD00085078607AE9783D5C7FE931717001810B2
:100AE000BA972396B7FE9C8438850C108507860735
:100AF000AE972396E7FE9C84850793F7F70FDC8477
:100B000049BF1C841010388589078607B29783D7A0
:100B1000C7FEBA97C207C1837C851C84850793F7FB
:100B2000F70F5C84FDBDB7F7FF1F03A547708280F8
:100B30001C4141677917F98F1CC12320050023222E
:100B4000050023240500B70702402326050013876C
:100B500087006317E500D8431367F700D8C3828086
:100B60001387C7016316E500D8431367070FFDB766
:100B7000138707036318E500D8438566938606F05C
:100B8000558FE9BF138747046315E500D843BD6659
:100B9000C5BF138787056316E500D843B7060F0066
:100BA000C5B71387C7066316E500D843B706F0003C
:100BB000C1BF138707086316E500D843B706000FC7
:100BC000C1B7138787406319E50003A74740136740
:100BD000F70023A2E74082801387C7416317E5002F
:100BE00003A747401367070FEDB793870743631BBE
:100BF000F500B707024003A747408566938606F0D5
:100C0000558FC1BFB7070240138747446316E500FD
:100C100003A74740BD66EDB7138787456317E50017
:100C200003A74740B7060F00E1BF1387C746631706
:100C3000E50003A74740B706F000D9B71387074878
:100C40006317E50003A74740B706000F55BF13879A
:100C500007496319E50003A7474D1367F70023AA67
:100C6000E74C82801387074A6317E50003A7474DC7
:100C70001367070FEDB71387074B6319E50003A749
:100C8000474D8566938606F0558FD1BF1387074C75
:100C9000E319E5FC03A7474DBD66FDB71C4161772D
:100CA0003D0794517D8F9C45D58F9449D58FD4496C
:100CB000D58F944DD58FD44DD58FD451D58F945594
:100CC000D58FD98F1CC1DC455CC19C411CC5DC4162
:100CD0005CC582801C4189C593E717001CC18280D6
:100CE00041677917F98FDDBF9C4513F7070113F8AA
:100CF000F70001C7D8413368E8008E2113F7F50FDC
:100D000039C318418146854E3D4F930F80029302AF
:100D10008004214E3396DE00B3F8C500631116033C
:100D20009398260033131F011343F3FF3377E30037
:100D3000B318180133E7E800639FF70550C985062B
:100D4000E39AC6FD18C11307F00F6375B704544149
:100D50002146854E3D4F930F800293028004414E01
:100D6000B398CE0033F715016392E80213172600FB
:100D700001173313EF001343F3FFB376D300331798
:100D8000E800D98E639DF701232A15010506E319B2
:100D9000C6FD54C18280E39457FA10C94DB7E3975A
:100DA00057FE23281501DDB719C20CC982804CC932
:100DB000828023A2A1828280B7160240DC42517752
:100DC0007D17F98F5D8DC8C28280371702405C4362
:100DD0009146B18B6385D700A1466382D706B717CA
:100DE0007A00938707201CC1371602405C42370700
:100DF0000020130707019183BD8BBA9794231C41F0
:100E0000B3D7D7005CC15442A1829D8ABA9694227E
:100E1000B3D6D70014C55442AD829D8A36971823A5
:100E2000B3D7E7005CC55842398393763700138700
:100E3000418036971823B3D7E7021CC982805C43F0
:100E40005843C166C983758FB7F6FF1F83A6C67066
:100E5000BD8B89071396160163480600C5460146F7
:100E60006392D702C94739A88946638FD702BD4626
:100E7000638ED702C146638ED702C546014663938F
:100E8000D700C1471DEF3747024003270780418B3A
:100E900005C737177A0013070720B307F7021CC1ED
:100EA00021D61C41858381B701466DBF0546B547F4
:100EB000D1BF0146BD47F9B737173D00130707906B
:100EC000E9BFB7150240D8559316F700D85563DF30
:100ED000060411833D8B9306170037177A0013071A
:100EE00007203357D70218C1D455A182BD8A8DE29D
:100EF00095463307D702058318C137170240585764
:100F000014413D8B050733D7E60218C1184171B76C
:100F100085456394B600E546E9BFBD456396B600D6
:100F2000D1463387E602C9BF8906E5BF3D8B9306EC
:100F3000170037177A00130707203357D702F1B786
:100F400099C5371702405C4B5D8D48CB8280B7173F
:100F50000240D84B1345F5FF798DC8CB828099C5E7
:100F6000371702401C4F5D8D08CF8280B7170240B3
:100F7000984F1345F5FF798D88CF828099C5371733
:100F800002405C475D8D48C78280B7170240D84752
:100F90001345F5FF798DC8C78280EFF26FA516293A
:100FA000F577FD17F58FF621DA257971D58F1EA912
:100FB0005625FD779387379FF58FD6212A842EC635
:100FC000D58F9625D58FB625D58F5EA55E29C2070C
:100FD000C18393F7F7CFD98F5EA96808FD33B74770
:100FE000014093870780B245631EF402A25765470C
:100FF000B387E7029841930640060A07B3D7E70292
:1010000033D7D702B3F7D702120792079387270384
:10101000B3D7D702BD8BD98FC207C1831EA4456148
:101020006FF04F9F9257E1B791C55E250967D98F41
:101030005EA582805A25F977FD17F98FD5BF93F504
:10104000F51F4EA182800A216D8D3335A00082806C
:10105000B707002083A7070837177A001307072070
:10106000B3D7E70293F7F70F2385F1821307803E8A
:10107000B387E7022394F1828280B7F700E0D84378
:101080008146799BD8C303D781823306A70290CBD0
:10109000D4CB98431367070198C39843136717028B
:1010A00098C3D843058B75DF9843799B98C382809A
:1010B000EFF20F942A84116501118545110545351C
:1010C000930700207C82371501408D473EC44C00B9
:1010D000E147130505803EC6013922C83744014067
:1010E000B70708000C08130504803ECC02CA231E73
:1010F000010065358545130504803D3705616FF0B6
:101100006F91EFF24F8DB7440140AE8932890144AF
:1011100093840480634524014A856FF00F8F930503
:10112000000426850D3765DDB387890083850700B8
:1011300026850504C205C1811937E9BF138781805F
:101140001C439386818B3E95636BD500B786002048
:101150009386068063E5A60008C33E858280FD571E
:10116000EDBF39713EDA2ED232D436D63AD842DCCF
:1011700046DE9387C18022CC804326CA06CEAA844D
:1011800009C41C4C99E3228515230C44541026866F
:10119000228536C6EF007016F2406244D2442161C7
:1011A0008280011126CA4AC806CE22CC4EC652C43D
:1011B000AA842E8901C51C4D91E3CD299C4C804405
:1011C00099E32685E521971700009387A725631CDF
:1011D000F402C0408357C400A18BB1C71C48A1C70B
:1011E000FD59294A1C4483450900FD17B1E91CC477
:1011F00063DE07062286A94526857120FD57630810
:10120000F502294535A0971700009387A72363149B
:10121000F4008044C1B7971700009387A71EE31B13
:10122000F4FAC04445BFA2852685312A55D97D559B
:10123000F2406244D2444249B249224A0561828066
:101240001CC4050963D70700184C63CBE70063890A
:1012500045011C401387170018C02380B70059B7F9
:10126000228626850D20E31F35F7D1B71C40138752
:10127000170018C029472380E70061B79387C18012
:10128000AA85884339BF011122CC26CA4AC806CE96
:101290004EC6AA842E89328401C51C4D91E33921A2
:1012A00097170000938707186319F406C0401C4C79
:1012B0001CC48357C400A18BC9C31C48BDCF1C48A4
:1012C00008409379F90F1379F90F1D8D5C48634637
:1012D000F500A2852685652C2DE51C440505FD1726
:1012E0001CC41C401387170018C0238037015C48BA
:1012F0006389A7008357C400858B81CBA9476316F8
:10130000F900A285268561240DEDF24062444A85EC
:10131000D2444249B2490561828097170000938701
:1013200067126314F400804459B79717000093873D
:10133000670DE31EF4F6C0449DBFA28526852120DB
:101340003DDD7D59D9B741119387C18026C28443C1
:1013500022C44AC006C62A892E8489C49C4C99E3BB
:101360002685A926971700009387C70B631CF402F4
:10137000C0400317C40093170701C18393F6870089
:10138000B5EE93F607019DEEA5472320F9001367FC
:1013900007042316E4007D55B240224492440249DA
:1013A00041018280971700009387C7096314F400F6
:1013B0008044C1B7971700009387C704E31BF4FA72
:1013C000C04445BF918B8DC74C5889C993074404CD
:1013D0006384F5004A85352B232A04028357C40011
:1013E0002322040093F7B7FD2316F4001C481CC009
:1013F0008357C40093E787002316F4001C4881EF4D
:101400008357C4001307002093F707286385E7007C
:10141000A2854A8585218357C40013F7170005C7A5
:101420005C4823240400B307F0401CCC1C48014551
:10143000A5F78317C40013F7070839DF93E70704FC
:101440002316F40089BF898B014791E3584818C4DB
:10145000F1BF83D7C500011122CC26CA06CE4AC8E7
:101460004EC613F78700AA842E8471EFD841634DCE
:10147000E000B841634AE0000145F2406244D244D2
:101480004249B2490561828058547DD703A90400BE
:101490009396370123A0040063DD06067048835746
:1014A000C400918B99C75C401D8E5C5899C33C4029
:1014B0001D8E5C540C50814626858297FD5703573C
:1014C000C400631DF5009440F54763E8D706B707ED
:1014D00040208507B3D7D700858BA5C31C4823229E
:1014E00004001CC09317370163D80700FD5763142D
:1014F000F5009C4091E368C84C5823A02401ADDD61
:10150000930744046384F50026852121232A0402DD
:10151000A5B70C500146854626850297FD572A86B9
:10152000E31FF5F69C40A5DF75476385E700594743
:101530006394E70423A0240181B7136707042316EB
:10154000E4007D551DBF83A90501E38709F203A9C6
:1015500005008D8B23A0350133093941014791E303
:10156000D84918C4E35A20F11C540C50CA864E8640
:10157000268582976349A0008357C40093E7070438
:101580002316F4007DBFAA993309A940E1BF9C4905
:10159000B9CF011122CC06CE2A8411C51C4D81E79A
:1015A0002EC62922B245971700009387A7E7639BB1
:1015B000F5004C408397C50095C722856244F240F0
:1015C000056141BD971700009387C7E76394F50055
:1015D0000C44CDB7971700009387C7E2E39CF5FC56
:1015E0004C44C9BFF2406244014505618280014517
:1015F0008280411122C406C62A842316B50023170F
:10160000C5002320050023220500232405002322F2
:10161000050623280500232A0500232C0500214662
:1016200081451305C505EFE0BFBF971700009387FD
:1016300067B45CD0971700009387C7B61CD4971780
:101640000000938707BB5CD4971700009387C7BD42
:1016500000D01CD8B240224441018280970500008E
:10166000938525F3A9A2411126C21306800693840F
:10167000F5FFB384C4024AC02E8922C406C69385EE
:101680004407252E2A8401CD23200500232225018D
:10169000310508C4138684068145EFE07FB82285B2
:1016A000B240224492440249410182801C4DADE384
:1016B000411106C622C497070000938767FA1CD51C
:1016C000938701819C4323240504232605042328B2
:1016D00005046314F50085471CCD2A841D2848C0E5
:1016E0002285052808C422852D2048C4484001468B
:1016F0009145013708440546A545E53D484409465E
:10170000C945C53D85471CCCB24022444101828079
:10171000828041119387018126C284434AC006C654
:101720009C4C22C42A8999E32685493793848404F2
:101730008044DC40FD1763D607009C40B9CF84404D
:10174000C5BF0317C40039E7C17785072322040604
:101750002320040023220400232404005CC4232843
:101760000400232A0400232C04002146814513058C
:10177000C405EFE0FFAA232A0402232C0402232439
:101780000404232604042285B240224492440249E0
:10179000410182801304840671BF91454A85E13579
:1017A00088C051FDB1472320F9000144E9BF797198
:1017B00022D44AD052CC56CA5AC85EC606D626D2C1
:1017C0004ECE2A8AAE8A130485040149054BFD5B7F
:1017D00009ECB25022544A8592540259F249624AA5
:1017E000D24A424BB24B4561828004448329440073
:1017F000FD1963D409000040E1BF83D7C400637BB7
:10180000FB008397E40063877701A6855285829A5F
:101810003369A90093848406E1BF1971A6DAAE8406
:101820008395E500A2DC86DE328463DC050083D785
:10183000C40023A0060093F7070885E7930700403C
:101840001DA0300836C6EF00B023B246E34105FEC6
:101850007247BD67F98F7977BA9793B717009CC223
:10186000F1BF930700041CC0F6506654D6540145DE
:101870000961828083D7C500011122CC06CE26CA19
:101880004AC8898B2E8489CF930774041CC01CC856
:1018900085475CC8F2406244D24442490561828077
:1018A00074003000AA84953FA2452A8926853122FA
:1018B00001ED8317C40013F7072069FFF19B93E73D
:1018C00027002316F400C9B797070000938747D96C
:1018D0009CD48357C40008C008C893E707082316A0
:1018E000F400A2475CC8B24791CF8315E400268577
:1018F000EF00B01B01C98357C400F19B93E71700A9
:101900002316F4008357C4003369F9002316240119
:1019100051B7DDC183A7C5FF411122C406C626C247
:101920001384C5FF63D307003E94AA84EF00D01E42
:101930009387C1829C4381EF2322040023A68182E6
:101940002244B2402685924441016F00101D637EFF
:10195000F40014403307D4006396E7009843DC4357
:10196000369718C05CC0D9BFBA87D84319C3E37D86
:10197000E4FE94433386D700631F86001040B2967E
:1019800094C33386D700E31DC7FA10435843B29679
:1019900094C3D8C375B76375C400B1479CC04DB735
:1019A0001040B306C4006316D70014435843B296E0
:1019B00014C058C0C0C369B78280011126CA93847D
:1019C0003500F19806CE22CC4AC84EC6A104B147D4
:1019D00063F3F404B14463E2B4042A89EF00D01342
:1019E0009387C18298433A8439E0938701839C436B
:1019F00091E781454A85812F23A8A182A6854A8542
:101A00009927FD5963193507B1472320F9004A8505
:101A1000EF00B01029A0E3D004FCB1471CC1014580
:101A2000F2406244D2444249B249056182801C407E
:101A3000858F63CF0702AD4663F6F6001CC03E9467
:101A400004C031A05C406313870223A6F1824A855B
:101A5000EF00B00C1305B4009307440061993307FD
:101A6000F5405DDF3A94898F1CC05DBF5CC3C5B78C
:101A70002287404095BF130435007198E30285FC2E
:101A8000B305A4404A85C125E31C35FBB5BF1C4600
:101A9000FD171CC663DA0700184E63C5E700A947A7
:101AA0006394F5006FF02FFE1C422E8513871700FC
:101AB00018C22380B7008280011122CC26CA4AC8EE
:101AC0004EC652C406CE2A89AE893284B304D600EB
:101AD0007D5A63149400014509A8834504004E868D
:101AE0004A8575370504E31645FFF2406244D24447
:101AF0004249B249224A05618280357122CD26CB06
:101B00004AC94EC706CF52C556C35AC1DEDEE2DC13
:101B1000E6DAAA89AE843289368401C51C4D91E388
:101B20007136971700009387E78F639BF40C83A4AB
:101B3000490083D7C400A18BF5C79C48E5C793072C
:101B40000002A304F1029307000302D22305F1026D
:101B500022C6930B5002971A0000938AAA90054C54
:101B6000294B4A848347040099C36390770FB30CD1
:101B70002441638D0C00E6864A86A6854E852D3F5E
:101B8000FD576306F51E9256E69636D2834704004B
:101B9000638F071CFD571309140002C802CE3ECA0A
:101BA00002CCA309010482D4834509001546568559
:101BB000B92713041900C24759E913F7070109C7E8
:101BC00013070002A309E10413F7870009C71307ED
:101BD000B002A309E104834609001307A002638051
:101BE000E608F2474A8481462546034704009305E8
:101BF0001400130707FD6379E60AB5CA3ECE85A82F
:101C000097170000938707846395F40083A48900E5
:101C10000DB7970700009387E77EE39CF4F083A459
:101C2000C90001BFA6854E85EFF0EFF109D97D55BA
:101C3000FA406A44DA444A49BA492A4A9A4A0A4B5B
:101C4000F65B665CD65C0D618280050421BF3305BE
:101C500055413315AC00C98F3EC82289B1B7324710
:101C600093064700184336C6634907023ACE034736
:101C700004009307E002631FF7040347140093076F
:101C8000A002631BF702B2470904138747009C4375
:101C90003AC663C107023ECA35A83307E04093E75E
:101CA00027003ACE3EC8E1B7B387670385462E8446
:101CB000BA9725BFFD57C5B7050402CA81468147BB
:101CC00025460347040093051400130707FD6376B8
:101CD000E606F1F2834504000D46170500001305E2
:101CE000E578312D11CD97070000938727781D8D5A
:101CF00093070004B397A700424505045D8D2AC8E9
:101D0000834504001946170500001305657613097D
:101D100014002304B102E5233DC197E7FFFF938739
:101D2000672E95E74247B2471377071009CF91070F
:101D30003EC69257D2973ED22DB5B38767038546EC
:101D40002E84BA97BDBF9D07E19BA107D5B7780048
:101D500097060000938686D626860C084E85970047
:101D60000000E7000000FD572A8AE314F5FC83D742
:101D7000C40093F70704E39C07EA125555BD7800A9
:101D800097060000938686D326860C084E85012A86
:101D9000D9BF797156CA9C49BA8A984522D426D2AD
:101DA0004ECE52CC06D64AD05AC85EC6AA892E84D8
:101DB000B284368A63D3E700BA879CC003473404F1
:101DC00019C385079CC01C4093F7070281C79C403C
:101DD00089079CC00329040013796900631A09006C
:101DE000130B9401FD5B5C449840998F634CF9049C
:101DF0001C408346340493F70702B336D000A5EBAA
:101E000013063404D2854E85829AFD576303F50488
:101E10001C4011469840998B544481446397C700F5
:101E2000B384E64063D3040081441C4418486354DF
:101E3000F700998FBE94014969047D5B639824057E
:101E4000014509A885465A86D2854E85829A631E29
:101E500075017D55B250225492540259F249624A9A
:101E6000D24A424BB24B456182800509ADBF330770
:101E7000D40013060003A301C70403475404938747
:101E80001600A2978906A381E7049DBF8546228696
:101E9000D2854E85829AE30E65FB050945B77971B7
:101EA00022D426D24AD04ECE06D652CC56CA5AC8D2
:101EB000B68983C68501930790063289AA842E8449
:101EC00013863504638DF60263E2D7069307800517
:101ED0006387F61863EDD70063800622930730040A
:101EE000638EF60A930A24042301D404C9A093073D
:101EF00030066385F60A93074006E395F6FE1C401C
:101F0000084393F6070893054500C5C61C410CC35A
:101F100063D807001307D002B307F040A301E4041D
:101F2000970600009386465529476DA8930700073A
:101F30006383F61663E5D7029307E006638AF61813
:101F40009307F006E390F6FA0C401C4313F80508DB
:101F5000138547006307080608C39C438DA89307B1
:101F60005007E383F6FE93078007638AF612930710
:101F70003007E399F6F61C43D0418145938647002C
:101F800014C383AA070056859D2E01C5330555410C
:101F900048C05C401CC8A301040471A81C43930AF8
:101FA0002404938647009C4314C32301F40485470B
:101FB000D5B793F607041C410CC3B9DAC207C18731
:101FC00081BF93F5050408C3C9D983D70700130758
:101FD000F0066387E60E970600009386E6492947D8
:101FE000A30104044C400CC463C5050008406D996E
:101FF00008C099E3B28A91CDB28AB3F5E702FD1A1F
:10200000B69583C505002380BA00B3D5E70263FF08
:10201000E70AA147631EF7001C40858B91CB58400F
:102020001C4863C7E70093070003A38FFAFEFD1A5D
:102030003306564110C84E87CA867000A285268591
:10204000893B7D5A631E450B7D55B25022549254F4
:102050000259F249624AD24A424B45618280A382C8
:10206000D50497060000938626410C40084313F8D8
:1020700005081C411105630D080208C313F715007C
:1020800001C793E505020CC04147B9FB0C4093F52D
:10209000F5FD0CC0B1B79C4193E707029CC19307C3
:1020A0008007A302F404970600009386263E75BFBE
:1020B00013F8050408C3E30308FCC207C1837DBF0E
:1020C000970600009386463B214719BFAE8735B778
:1020D00094411C43CC4913F8060813854700630656
:1020E000080008C39C438CC301A808C393F60604E8
:1020F0009C43F5DA2390B70023280400B28A25BF59
:1021000014485686CA8526858299E30F45F31C40FC
:10211000898B8DE7B2474844E359F5F23E8535B7E0
:1021200085465686CA8526858299E30F65F1050A9C
:102130005C443247998FE345FAFEE9BF014A930AAE
:1021400094017D5BF5B7411122C42A842E8523AA10
:10215000018A06C6EFE09FFEFD576317F5009387DF
:10216000418B9C4391C31CC0B240224441018280F8
:10217000411122C42E848395E50006C64522634999
:1021800005007C48AA977CC8B24022444101828065
:102190008357C4007D777D17F98F2316F400EDB7C0
:1021A00083D7C500011122CC26CA4AC84EC606CE26
:1021B00093F70710AA842E843289B68991C7839534
:1021C000E5008946014631228357C4007D777D179B
:1021D000F98F2316F4008315E4006244F240CE86A2
:1021E0004A86B24942492685D24405613DA841113B
:1021F00022C42E848395E50006C6E128FD570357C7
:10220000C400631BF500FD77FD17F98F2316F4005A
:10221000B2402244410182808567D98F2316F400A1
:1022200068C8FDB78395E50005A8411122C42A843A
:102230002E85B285368623AA018A06C6EFE07FEC9A
:10224000FD576317F5009387418B9C4391C31CC0D6
:10225000B240224441018280411122C42A842E8549
:1022600023AA018A06C6CD20FD576317F500938780
:10227000418B9C4391C31CC0B240224441018280E7
:10228000411122C42A842E85B28523AA018A06C65A
:10229000D120FD576317F5009387418B9C4391C371
:1022A0001CC0B240224441018280411122C42A84D0
:1022B0002E8523AA018A06C66520FD576317F500FF
:1022C0009387418B9C4391C31CC0B240224441017F
:1022D0008280411122C42A842E85B285368623AAA3
:1022E000018A06C66120FD576317F5009387418B6D
:1022F0009C4391C31CC0B24022444101828093F5AB
:10230000F50F2A966314C5000145828083470500B6
:10231000E38DB7FE0505FDB782808280411122C49E
:102320002A842E85B285368623AA018A06C6A9206C
:10233000FD576317F5009387418B9C4391C31CC0E5
:10234000B2402244410182809307800523AAF18A8A
:102350007D5582809307800523AAF18A7D5582806E
:102360009307800523AAF18A01458280930780059F
:1023700023AAF18A7D5582809307800523AAF18ADA
:102380007D55828053797374656D436C6B3A256417
:102390000D0A00004368697049443A253038780DC9
:1023A0000A00000043616C696272617474696F6E47
:1023B00056616C75653A25640A0000004750494F24
:1023C00020546F67676C6520544553540D0000001E
:1023D0005B436F6E76657273696F6E204E2E2E258D
:1023E000645D20202000000056616C6F7220436FF6
:1023F0006E7665727469646F203D2025640D0A0055
:1024000000000000000000000000000000000000CC
:1024100000000000000000000000000000000000BC
:1024200000000000000000000000000000000000AC
:10243000000000000000000000000000000000009C
:10244000000000000000000000000000000000008C
:10245000000000000000000000000000000000007C
:10246000232D302B20000000686C4C00656667450A
:10247000464700003031323334353637383941423F
:10248000434445460000000030313233343536379E
:0C2490003839616263646566000000007A
:10249C000000000000000000010203040607080908
:1024AC0000000000010203040102030406070809EE
:1024BC000000000020240000402400000024000044
:1024CC000000000000000000000000000000000000
:1024DC0000000000000000000000000000000000F0
:1024EC0000000000000000000000000000000000E0
:1024FC0000000000000000000000000000000000D0
:10250C0000000000000000000000000000000000BF
:10251C0000D8B8050204060838010020200000206D
:08252C00200000200000000067
:00000001FF
